{
  "address": "0xa3169aA147F8470FD92Ab27EEF106b8fD806cAa2",
  "abi": [
    {
      "inputs": [
        {
          "internalType": "address",
          "name": "priceFeedAddress",
          "type": "address"
        }
      ],
      "stateMutability": "nonpayable",
      "type": "constructor"
    },
    {
      "inputs": [],
      "name": "FundMe__NotOwner",
      "type": "error"
    },
    {
      "inputs": [],
      "name": "MIN_ACCEPTABLE_VALUE",
      "outputs": [
        {
          "internalType": "uint256",
          "name": "",
          "type": "uint256"
        }
      ],
      "stateMutability": "view",
      "type": "function"
    },
    {
      "inputs": [],
      "name": "fund",
      "outputs": [],
      "stateMutability": "payable",
      "type": "function"
    },
    {
      "inputs": [
        {
          "internalType": "address",
          "name": "fundingAddress",
          "type": "address"
        }
      ],
      "name": "getAddressToAmountFunded",
      "outputs": [
        {
          "internalType": "uint256",
          "name": "",
          "type": "uint256"
        }
      ],
      "stateMutability": "view",
      "type": "function"
    },
    {
      "inputs": [
        {
          "internalType": "uint256",
          "name": "index",
          "type": "uint256"
        }
      ],
      "name": "getFunders",
      "outputs": [
        {
          "internalType": "address",
          "name": "",
          "type": "address"
        }
      ],
      "stateMutability": "view",
      "type": "function"
    },
    {
      "inputs": [],
      "name": "getPriceFeed",
      "outputs": [
        {
          "internalType": "contract AggregatorV3Interface",
          "name": "",
          "type": "address"
        }
      ],
      "stateMutability": "view",
      "type": "function"
    },
    {
      "inputs": [],
      "name": "withdraw",
      "outputs": [],
      "stateMutability": "nonpayable",
      "type": "function"
    },
    {
      "inputs": [],
      "name": "withdrawCheaper",
      "outputs": [],
      "stateMutability": "nonpayable",
      "type": "function"
    }
  ],
  "transactionHash": "0x8f36a2a3ced22bc9de498589e3f6497ec0524183e316a7f0ee911a2b25e1298b",
  "args": [
    "0x694AA1769357215DE4FAC081bf1f309aDC325306"
  ],
  "numDeployments": 3,
  "solcInputHash": "094c4968c35e8da2ef5c49a9b7aa4642",
  "bytecode": "0x60a06040523480156200001157600080fd5b50604051620012cb380380620012cb833981810160405281019062000037919062000120565b80600260006101000a81548173ffffffffffffffffffffffffffffffffffffffff021916908373ffffffffffffffffffffffffffffffffffffffff1602179055503373ffffffffffffffffffffffffffffffffffffffff1660808173ffffffffffffffffffffffffffffffffffffffff1660601b815250505062000152565b600080fd5b600073ffffffffffffffffffffffffffffffffffffffff82169050919050565b6000620000e882620000bb565b9050919050565b620000fa81620000db565b81146200010657600080fd5b50565b6000815190506200011a81620000ef565b92915050565b600060208284031215620001395762000138620000b6565b5b6000620001498482850162000109565b91505092915050565b60805160601c611145620001866000396000818161021c015281816103a9015281816104a0015261069001526111456000f3fe6080604052600436106100705760003560e01c80633ccfd60b1161004e5780633ccfd60b1461011a5780639e87a5cd14610131578063a13fe71f1461015c578063b60d42881461017357610070565b80630343fb2514610075578063038001c6146100b25780633a7b6c74146100dd575b600080fd5b34801561008157600080fd5b5061009c60048036038101906100979190610a7d565b61017d565b6040516100a99190610ac3565b60405180910390f35b3480156100be57600080fd5b506100c76101c6565b6040516100d49190610ac3565b60405180910390f35b3480156100e957600080fd5b5061010460048036038101906100ff9190610b0a565b6101d3565b6040516101119190610b46565b60405180910390f35b34801561012657600080fd5b5061012f61021a565b005b34801561013d57600080fd5b50610146610474565b6040516101539190610bc0565b60405180910390f35b34801561016857600080fd5b5061017161049e565b005b61017b61075c565b005b6000600160008373ffffffffffffffffffffffffffffffffffffffff1673ffffffffffffffffffffffffffffffffffffffff168152602001908152602001600020549050919050565b6802b5e3af16b188000081565b60008082815481106101e8576101e7610bdb565b5b9060005260206000200160009054906101000a900473ffffffffffffffffffffffffffffffffffffffff169050919050565b7f000000000000000000000000000000000000000000000000000000000000000073ffffffffffffffffffffffffffffffffffffffff163373ffffffffffffffffffffffffffffffffffffffff161461029f576040517f579610db00000000000000000000000000000000000000000000000000000000815260040160405180910390fd5b60005b600080549050811015610344576000600160008084815481106102c8576102c7610bdb565b5b9060005260206000200160009054906101000a900473ffffffffffffffffffffffffffffffffffffffff1673ffffffffffffffffffffffffffffffffffffffff1673ffffffffffffffffffffffffffffffffffffffff16815260200190815260200160002081905550808061033c90610c39565b9150506102a2565b50600067ffffffffffffffff8111156103605761035f610c82565b5b60405190808252806020026020018201604052801561038e5781602001602082028036833780820191505090505b50600090805190602001906103a4929190610973565b5060007f000000000000000000000000000000000000000000000000000000000000000073ffffffffffffffffffffffffffffffffffffffff16476040516103eb90610ce2565b60006040518083038185875af1925050503d8060008114610428576040519150601f19603f3d011682016040523d82523d6000602084013e61042d565b606091505b5050905080610471576040517f08c379a000000000000000000000000000000000000000000000000000000000815260040161046890610d54565b60405180910390fd5b50565b6000600260009054906101000a900473ffffffffffffffffffffffffffffffffffffffff16905090565b7f000000000000000000000000000000000000000000000000000000000000000073ffffffffffffffffffffffffffffffffffffffff163373ffffffffffffffffffffffffffffffffffffffff1614610523576040517f579610db00000000000000000000000000000000000000000000000000000000815260040160405180910390fd5b6000808054806020026020016040519081016040528092919081815260200182805480156105a657602002820191906000526020600020905b8160009054906101000a900473ffffffffffffffffffffffffffffffffffffffff1673ffffffffffffffffffffffffffffffffffffffff168152602001906001019080831161055c575b5050505050905060005b815181101561062b576000600160008484815181106105d2576105d1610bdb565b5b602002602001015173ffffffffffffffffffffffffffffffffffffffff1673ffffffffffffffffffffffffffffffffffffffff16815260200190815260200160002081905550808061062390610c39565b9150506105b0565b50600067ffffffffffffffff81111561064757610646610c82565b5b6040519080825280602002602001820160405280156106755781602001602082028036833780820191505090505b506000908051906020019061068b929190610973565b5060007f000000000000000000000000000000000000000000000000000000000000000073ffffffffffffffffffffffffffffffffffffffff16476040516106d290610ce2565b60006040518083038185875af1925050503d806000811461070f576040519150601f19603f3d011682016040523d82523d6000602084013e610714565b606091505b5050905080610758576040517f08c379a000000000000000000000000000000000000000000000000000000000815260040161074f90610d54565b60405180910390fd5b5050565b6802b5e3af16b188000061079b600260009054906101000a900473ffffffffffffffffffffffffffffffffffffffff163461089790919063ffffffff16565b10156107dc576040517f08c379a00000000000000000000000000000000000000000000000000000000081526004016107d390610dc0565b60405180910390fd5b6000339080600181540180825580915050600190039060005260206000200160009091909190916101000a81548173ffffffffffffffffffffffffffffffffffffffff021916908373ffffffffffffffffffffffffffffffffffffffff16021790555034600160003373ffffffffffffffffffffffffffffffffffffffff1673ffffffffffffffffffffffffffffffffffffffff168152602001908152602001600020600082825461088e9190610de0565b92505081905550565b6000806108a3836108d3565b90506000670de0b6b3a764000082866108bc9190610e36565b6108c69190610ebf565b9050809250505092915050565b6000808273ffffffffffffffffffffffffffffffffffffffff1663feaf968c6040518163ffffffff1660e01b815260040160a06040518083038186803b15801561091c57600080fd5b505afa158015610930573d6000803e3d6000fd5b505050506040513d601f19601f820116820180604052508101906109549190610f7d565b5050509150506402540be4008161096b9190610ff8565b915050919050565b8280548282559060005260206000209081019282156109ec579160200282015b828111156109eb5782518260006101000a81548173ffffffffffffffffffffffffffffffffffffffff021916908373ffffffffffffffffffffffffffffffffffffffff16021790555091602001919060010190610993565b5b5090506109f991906109fd565b5090565b5b80821115610a165760008160009055506001016109fe565b5090565b600080fd5b600073ffffffffffffffffffffffffffffffffffffffff82169050919050565b6000610a4a82610a1f565b9050919050565b610a5a81610a3f565b8114610a6557600080fd5b50565b600081359050610a7781610a51565b92915050565b600060208284031215610a9357610a92610a1a565b5b6000610aa184828501610a68565b91505092915050565b6000819050919050565b610abd81610aaa565b82525050565b6000602082019050610ad86000830184610ab4565b92915050565b610ae781610aaa565b8114610af257600080fd5b50565b600081359050610b0481610ade565b92915050565b600060208284031215610b2057610b1f610a1a565b5b6000610b2e84828501610af5565b91505092915050565b610b4081610a3f565b82525050565b6000602082019050610b5b6000830184610b37565b92915050565b6000819050919050565b6000610b86610b81610b7c84610a1f565b610b61565b610a1f565b9050919050565b6000610b9882610b6b565b9050919050565b6000610baa82610b8d565b9050919050565b610bba81610b9f565b82525050565b6000602082019050610bd56000830184610bb1565b92915050565b7f4e487b7100000000000000000000000000000000000000000000000000000000600052603260045260246000fd5b7f4e487b7100000000000000000000000000000000000000000000000000000000600052601160045260246000fd5b6000610c4482610aaa565b91507fffffffffffffffffffffffffffffffffffffffffffffffffffffffffffffffff821415610c7757610c76610c0a565b5b600182019050919050565b7f4e487b7100000000000000000000000000000000000000000000000000000000600052604160045260246000fd5b600081905092915050565b50565b6000610ccc600083610cb1565b9150610cd782610cbc565b600082019050919050565b6000610ced82610cbf565b9150819050919050565b600082825260208201905092915050565b7f5769746864726177204661696c65642100000000000000000000000000000000600082015250565b6000610d3e601083610cf7565b9150610d4982610d08565b602082019050919050565b60006020820190508181036000830152610d6d81610d31565b9050919050565b7f4469646e27742053656e6420456e6f75676821212e2e00000000000000000000600082015250565b6000610daa601683610cf7565b9150610db582610d74565b602082019050919050565b60006020820190508181036000830152610dd981610d9d565b9050919050565b6000610deb82610aaa565b9150610df683610aaa565b9250827fffffffffffffffffffffffffffffffffffffffffffffffffffffffffffffffff03821115610e2b57610e2a610c0a565b5b828201905092915050565b6000610e4182610aaa565b9150610e4c83610aaa565b9250817fffffffffffffffffffffffffffffffffffffffffffffffffffffffffffffffff0483118215151615610e8557610e84610c0a565b5b828202905092915050565b7f4e487b7100000000000000000000000000000000000000000000000000000000600052601260045260246000fd5b6000610eca82610aaa565b9150610ed583610aaa565b925082610ee557610ee4610e90565b5b828204905092915050565b600069ffffffffffffffffffff82169050919050565b610f0f81610ef0565b8114610f1a57600080fd5b50565b600081519050610f2c81610f06565b92915050565b6000819050919050565b610f4581610f32565b8114610f5057600080fd5b50565b600081519050610f6281610f3c565b92915050565b600081519050610f7781610ade565b92915050565b600080600080600060a08688031215610f9957610f98610a1a565b5b6000610fa788828901610f1d565b9550506020610fb888828901610f53565b9450506040610fc988828901610f68565b9350506060610fda88828901610f68565b9250506080610feb88828901610f1d565b9150509295509295909350565b600061100382610f32565b915061100e83610f32565b9250827f7fffffffffffffffffffffffffffffffffffffffffffffffffffffffffffffff048211600084136000841316161561104d5761104c610c0a565b5b817f8000000000000000000000000000000000000000000000000000000000000000058312600084126000841316161561108a57611089610c0a565b5b827f800000000000000000000000000000000000000000000000000000000000000005821260008413600084121616156110c7576110c6610c0a565b5b827f7fffffffffffffffffffffffffffffffffffffffffffffffffffffffffffffff058212600084126000841216161561110457611103610c0a565b5b82820290509291505056fea264697066735822122079ac72611467c3b79c55fdf9d0af50280838ce7524d42e9a9eadae8424dbf82b64736f6c63430008080033",
  "devdoc": {
    "kind": "dev",
    "methods": {},
    "version": 1
  },
  "userdoc": {
    "kind": "user",
    "methods": {},
    "version": 1
  },
  "storageLayout": {
    "storage": [
      {
        "astId": 64,
        "contract": "contracts/FundMe.sol:FundMe",
        "label": "funders",
        "offset": 0,
        "slot": "0",
        "type": "t_array(t_address)dyn_storage"
      },
      {
        "astId": 68,
        "contract": "contracts/FundMe.sol:FundMe",
        "label": "addressToAmountFunded",
        "offset": 0,
        "slot": "1",
        "type": "t_mapping(t_address,t_uint256)"
      },
      {
        "astId": 71,
        "contract": "contracts/FundMe.sol:FundMe",
        "label": "priceFeed",
        "offset": 0,
        "slot": "2",
        "type": "t_contract(AggregatorV3Interface)45"
      }
    ],
    "types": {
      "t_address": {
        "encoding": "inplace",
        "label": "address",
        "numberOfBytes": "20"
      },
      "t_array(t_address)dyn_storage": {
        "base": "t_address",
        "encoding": "dynamic_array",
        "label": "address[]",
        "numberOfBytes": "32"
      },
      "t_contract(AggregatorV3Interface)45": {
        "encoding": "inplace",
        "label": "contract AggregatorV3Interface",
        "numberOfBytes": "20"
      },
      "t_mapping(t_address,t_uint256)": {
        "encoding": "mapping",
        "key": "t_address",
        "label": "mapping(address => uint256)",
        "numberOfBytes": "32",
        "value": "t_uint256"
      },
      "t_uint256": {
        "encoding": "inplace",
        "label": "uint256",
        "numberOfBytes": "32"
      }
    }
  }
}